{
  "contractName": "FarmerSupplyChain",
  "abi": [
    {
      "inputs": [],
      "payable": false,
      "stateMutability": "nonpayable",
      "type": "constructor"
    },
    {
      "anonymous": false,
      "inputs": [
        {
          "indexed": false,
          "internalType": "uint256",
          "name": "cropId",
          "type": "uint256"
        },
        {
          "indexed": false,
          "internalType": "string",
          "name": "name",
          "type": "string"
        },
        {
          "indexed": false,
          "internalType": "uint256",
          "name": "quantity",
          "type": "uint256"
        },
        {
          "indexed": false,
          "internalType": "uint256",
          "name": "price",
          "type": "uint256"
        }
      ],
      "name": "CropAdded",
      "type": "event"
    },
    {
      "anonymous": false,
      "inputs": [
        {
          "indexed": false,
          "internalType": "uint256",
          "name": "cropId",
          "type": "uint256"
        },
        {
          "indexed": false,
          "internalType": "enum FarmerSupplyChain.STAGE",
          "name": "newStage",
          "type": "uint8"
        }
      ],
      "name": "CropStageUpdated",
      "type": "event"
    },
    {
      "anonymous": false,
      "inputs": [
        {
          "indexed": true,
          "internalType": "address",
          "name": "distributor",
          "type": "address"
        },
        {
          "indexed": false,
          "internalType": "uint256",
          "name": "id",
          "type": "uint256"
        }
      ],
      "name": "DistributorRegistered",
      "type": "event"
    },
    {
      "anonymous": false,
      "inputs": [
        {
          "indexed": true,
          "internalType": "address",
          "name": "farmer",
          "type": "address"
        },
        {
          "indexed": false,
          "internalType": "uint256",
          "name": "id",
          "type": "uint256"
        }
      ],
      "name": "FarmerRegistered",
      "type": "event"
    },
    {
      "anonymous": false,
      "inputs": [
        {
          "indexed": true,
          "internalType": "address",
          "name": "processor",
          "type": "address"
        },
        {
          "indexed": false,
          "internalType": "uint256",
          "name": "id",
          "type": "uint256"
        }
      ],
      "name": "ProcessorRegistered",
      "type": "event"
    },
    {
      "anonymous": false,
      "inputs": [
        {
          "indexed": true,
          "internalType": "address",
          "name": "retailer",
          "type": "address"
        },
        {
          "indexed": false,
          "internalType": "uint256",
          "name": "id",
          "type": "uint256"
        }
      ],
      "name": "RetailerRegistered",
      "type": "event"
    },
    {
      "constant": true,
      "inputs": [
        {
          "internalType": "uint256",
          "name": "",
          "type": "uint256"
        }
      ],
      "name": "CropStock",
      "outputs": [
        {
          "internalType": "uint256",
          "name": "id",
          "type": "uint256"
        },
        {
          "internalType": "string",
          "name": "name",
          "type": "string"
        },
        {
          "internalType": "string",
          "name": "description",
          "type": "string"
        },
        {
          "internalType": "uint256",
          "name": "farmerId",
          "type": "uint256"
        },
        {
          "internalType": "uint256",
          "name": "processorId",
          "type": "uint256"
        },
        {
          "internalType": "uint256",
          "name": "distributorId",
          "type": "uint256"
        },
        {
          "internalType": "uint256",
          "name": "retailerId",
          "type": "uint256"
        },
        {
          "internalType": "uint256",
          "name": "quantity",
          "type": "uint256"
        },
        {
          "internalType": "uint256",
          "name": "price",
          "type": "uint256"
        },
        {
          "internalType": "enum FarmerSupplyChain.STAGE",
          "name": "stage",
          "type": "uint8"
        }
      ],
      "payable": false,
      "stateMutability": "view",
      "type": "function"
    },
    {
      "constant": true,
      "inputs": [
        {
          "internalType": "uint256",
          "name": "",
          "type": "uint256"
        }
      ],
      "name": "Distributors",
      "outputs": [
        {
          "internalType": "address",
          "name": "addr",
          "type": "address"
        },
        {
          "internalType": "uint256",
          "name": "id",
          "type": "uint256"
        },
        {
          "internalType": "string",
          "name": "name",
          "type": "string"
        },
        {
          "internalType": "string",
          "name": "location",
          "type": "string"
        }
      ],
      "payable": false,
      "stateMutability": "view",
      "type": "function"
    },
    {
      "constant": true,
      "inputs": [
        {
          "internalType": "uint256",
          "name": "",
          "type": "uint256"
        }
      ],
      "name": "Farmers",
      "outputs": [
        {
          "internalType": "address",
          "name": "addr",
          "type": "address"
        },
        {
          "internalType": "uint256",
          "name": "id",
          "type": "uint256"
        },
        {
          "internalType": "string",
          "name": "name",
          "type": "string"
        },
        {
          "internalType": "string",
          "name": "location",
          "type": "string"
        },
        {
          "internalType": "string",
          "name": "specialization",
          "type": "string"
        }
      ],
      "payable": false,
      "stateMutability": "view",
      "type": "function"
    },
    {
      "constant": true,
      "inputs": [],
      "name": "Owner",
      "outputs": [
        {
          "internalType": "address",
          "name": "",
          "type": "address"
        }
      ],
      "payable": false,
      "stateMutability": "view",
      "type": "function"
    },
    {
      "constant": true,
      "inputs": [
        {
          "internalType": "uint256",
          "name": "",
          "type": "uint256"
        }
      ],
      "name": "Processors",
      "outputs": [
        {
          "internalType": "address",
          "name": "addr",
          "type": "address"
        },
        {
          "internalType": "uint256",
          "name": "id",
          "type": "uint256"
        },
        {
          "internalType": "string",
          "name": "name",
          "type": "string"
        },
        {
          "internalType": "string",
          "name": "location",
          "type": "string"
        }
      ],
      "payable": false,
      "stateMutability": "view",
      "type": "function"
    },
    {
      "constant": true,
      "inputs": [
        {
          "internalType": "address",
          "name": "",
          "type": "address"
        }
      ],
      "name": "RegisteredDistributors",
      "outputs": [
        {
          "internalType": "uint256",
          "name": "",
          "type": "uint256"
        }
      ],
      "payable": false,
      "stateMutability": "view",
      "type": "function"
    },
    {
      "constant": true,
      "inputs": [
        {
          "internalType": "address",
          "name": "",
          "type": "address"
        }
      ],
      "name": "RegisteredFarmers",
      "outputs": [
        {
          "internalType": "uint256",
          "name": "",
          "type": "uint256"
        }
      ],
      "payable": false,
      "stateMutability": "view",
      "type": "function"
    },
    {
      "constant": true,
      "inputs": [
        {
          "internalType": "address",
          "name": "",
          "type": "address"
        }
      ],
      "name": "RegisteredProcessors",
      "outputs": [
        {
          "internalType": "uint256",
          "name": "",
          "type": "uint256"
        }
      ],
      "payable": false,
      "stateMutability": "view",
      "type": "function"
    },
    {
      "constant": true,
      "inputs": [
        {
          "internalType": "address",
          "name": "",
          "type": "address"
        }
      ],
      "name": "RegisteredRetailers",
      "outputs": [
        {
          "internalType": "uint256",
          "name": "",
          "type": "uint256"
        }
      ],
      "payable": false,
      "stateMutability": "view",
      "type": "function"
    },
    {
      "constant": true,
      "inputs": [
        {
          "internalType": "uint256",
          "name": "",
          "type": "uint256"
        }
      ],
      "name": "Retailers",
      "outputs": [
        {
          "internalType": "address",
          "name": "addr",
          "type": "address"
        },
        {
          "internalType": "uint256",
          "name": "id",
          "type": "uint256"
        },
        {
          "internalType": "string",
          "name": "name",
          "type": "string"
        },
        {
          "internalType": "string",
          "name": "location",
          "type": "string"
        }
      ],
      "payable": false,
      "stateMutability": "view",
      "type": "function"
    },
    {
      "constant": true,
      "inputs": [],
      "name": "cropCtr",
      "outputs": [
        {
          "internalType": "uint256",
          "name": "",
          "type": "uint256"
        }
      ],
      "payable": false,
      "stateMutability": "view",
      "type": "function"
    },
    {
      "constant": true,
      "inputs": [],
      "name": "distributorCtr",
      "outputs": [
        {
          "internalType": "uint256",
          "name": "",
          "type": "uint256"
        }
      ],
      "payable": false,
      "stateMutability": "view",
      "type": "function"
    },
    {
      "constant": true,
      "inputs": [],
      "name": "farmerCtr",
      "outputs": [
        {
          "internalType": "uint256",
          "name": "",
          "type": "uint256"
        }
      ],
      "payable": false,
      "stateMutability": "view",
      "type": "function"
    },
    {
      "constant": true,
      "inputs": [],
      "name": "processorCtr",
      "outputs": [
        {
          "internalType": "uint256",
          "name": "",
          "type": "uint256"
        }
      ],
      "payable": false,
      "stateMutability": "view",
      "type": "function"
    },
    {
      "constant": true,
      "inputs": [],
      "name": "retailerCtr",
      "outputs": [
        {
          "internalType": "uint256",
          "name": "",
          "type": "uint256"
        }
      ],
      "payable": false,
      "stateMutability": "view",
      "type": "function"
    },
    {
      "constant": false,
      "inputs": [
        {
          "internalType": "string",
          "name": "_name",
          "type": "string"
        },
        {
          "internalType": "string",
          "name": "_location",
          "type": "string"
        },
        {
          "internalType": "string",
          "name": "_specialization",
          "type": "string"
        }
      ],
      "name": "registerFarmer",
      "outputs": [],
      "payable": false,
      "stateMutability": "nonpayable",
      "type": "function"
    },
    {
      "constant": false,
      "inputs": [
        {
          "internalType": "string",
          "name": "_name",
          "type": "string"
        },
        {
          "internalType": "string",
          "name": "_location",
          "type": "string"
        }
      ],
      "name": "registerProcessor",
      "outputs": [],
      "payable": false,
      "stateMutability": "nonpayable",
      "type": "function"
    },
    {
      "constant": false,
      "inputs": [
        {
          "internalType": "string",
          "name": "_name",
          "type": "string"
        },
        {
          "internalType": "string",
          "name": "_location",
          "type": "string"
        }
      ],
      "name": "registerDistributor",
      "outputs": [],
      "payable": false,
      "stateMutability": "nonpayable",
      "type": "function"
    },
    {
      "constant": false,
      "inputs": [
        {
          "internalType": "string",
          "name": "_name",
          "type": "string"
        },
        {
          "internalType": "string",
          "name": "_location",
          "type": "string"
        }
      ],
      "name": "registerRetailer",
      "outputs": [],
      "payable": false,
      "stateMutability": "nonpayable",
      "type": "function"
    },
    {
      "constant": false,
      "inputs": [
        {
          "internalType": "string",
          "name": "_name",
          "type": "string"
        },
        {
          "internalType": "string",
          "name": "_description",
          "type": "string"
        },
        {
          "internalType": "uint256",
          "name": "_quantity",
          "type": "uint256"
        },
        {
          "internalType": "uint256",
          "name": "_price",
          "type": "uint256"
        }
      ],
      "name": "addCrop",
      "outputs": [],
      "payable": false,
      "stateMutability": "nonpayable",
      "type": "function"
    },
    {
      "constant": false,
      "inputs": [
        {
          "internalType": "uint256",
          "name": "_cropId",
          "type": "uint256"
        }
      ],
      "name": "farmingStage",
      "outputs": [],
      "payable": false,
      "stateMutability": "nonpayable",
      "type": "function"
    },
    {
      "constant": false,
      "inputs": [
        {
          "internalType": "uint256",
          "name": "_cropId",
          "type": "uint256"
        }
      ],
      "name": "processingStage",
      "outputs": [],
      "payable": false,
      "stateMutability": "nonpayable",
      "type": "function"
    },
    {
      "constant": false,
      "inputs": [
        {
          "internalType": "uint256",
          "name": "_cropId",
          "type": "uint256"
        }
      ],
      "name": "distributionStage",
      "outputs": [],
      "payable": false,
      "stateMutability": "nonpayable",
      "type": "function"
    },
    {
      "constant": false,
      "inputs": [
        {
          "internalType": "uint256",
          "name": "_cropId",
          "type": "uint256"
        }
      ],
      "name": "retailStage",
      "outputs": [],
      "payable": false,
      "stateMutability": "nonpayable",
      "type": "function"
    },
    {
      "constant": true,
      "inputs": [
        {
          "internalType": "uint256",
          "name": "_cropId",
          "type": "uint256"
        }
      ],
      "name": "showStage",
      "outputs": [
        {
          "internalType": "string",
          "name": "",
          "type": "string"
        }
      ],
      "payable": false,
      "stateMutability": "view",
      "type": "function"
    }
  ],
  "bytecode": "0x60806040526000600155600060025560006003556000600455600060055534801561002957600080fd5b50336000806101000a81548173ffffffffffffffffffffffffffffffffffffffff021916908373ffffffffffffffffffffffffffffffffffffffff16021790555061349a806100796000396000f3fe608060405234801561001057600080fd5b50600436106101735760003560e01c806385d79637116100de578063d4eb879b11610097578063dab615be11610071578063dab615be1461120a578063e101a2e014611238578063e1aa665f146112df578063e5575009146112fd57610173565b8063d4eb879b14610f46578063d85456a414610f64578063d9461a96146110b157610173565b806385d7963714610ba0578063902a401d14610d06578063a64ca91614610d5e578063b4a99a4e14610d7c578063c8eef30014610dc6578063cdb6d41b14610f1857610173565b806351bc37b81161013057806351bc37b81461079e5780635709308c146108eb57806366abf70814610909578063678401ff14610ac257806374d5417f14610b1a578063803ad0ae14610b7257610173565b80630b6b8edc146101785780632457c660146102ca57806329a566d21461041c5780633238b16b146106055780633cc68aa2146106235780634bda300e14610651575b600080fd5b6102c86004803603604081101561018e57600080fd5b81019080803590602001906401000000008111156101ab57600080fd5b8201836020820111156101bd57600080fd5b803590602001918460018302840111640100000000831117156101df57600080fd5b91908080601f016020809104026020016040519081016040528093929190818152602001838380828437600081840152601f19601f8201169050808301925050505050505091929192908035906020019064010000000081111561024257600080fd5b82018360208201111561025457600080fd5b8035906020019184600183028401116401000000008311171561027657600080fd5b91908080601f016020809104026020016040519081016040528093929190818152602001838380828437600081840152601f19601f820116905080830192505050505050509192919290505050611355565b005b61041a600480360360408110156102e057600080fd5b81019080803590602001906401000000008111156102fd57600080fd5b82018360208201111561030f57600080fd5b8035906020019184600183028401116401000000008311171561033157600080fd5b91908080601f016020809104026020016040519081016040528093929190818152602001838380828437600081840152601f19601f8201169050808301925050505050505091929192908035906020019064010000000081111561039457600080fd5b8201836020820111156103a657600080fd5b803590602001918460018302840111640100000000831117156103c857600080fd5b91908080601f016020809104026020016040519081016040528093929190818152602001838380828437600081840152601f19601f820116905080830192505050505050509192919290505050611592565b005b6106036004803603606081101561043257600080fd5b810190808035906020019064010000000081111561044f57600080fd5b82018360208201111561046157600080fd5b8035906020019184600183028401116401000000008311171561048357600080fd5b91908080601f016020809104026020016040519081016040528093929190818152602001838380828437600081840152601f19601f820116905080830192505050505050509192919290803590602001906401000000008111156104e657600080fd5b8201836020820111156104f857600080fd5b8035906020019184600183028401116401000000008311171561051a57600080fd5b91908080601f016020809104026020016040519081016040528093929190818152602001838380828437600081840152601f19601f8201169050808301925050505050505091929192908035906020019064010000000081111561057d57600080fd5b82018360208201111561058f57600080fd5b803590602001918460018302840111640100000000831117156105b157600080fd5b91908080601f016020809104026020016040519081016040528093929190818152602001838380828437600081840152601f19601f8201169050808301925050505050505091929192905050506117b2565b005b61060d611a13565b6040518082815260200191505060405180910390f35b61064f6004803603602081101561063957600080fd5b8101908080359060200190929190505050611a19565b005b61067d6004803603602081101561066757600080fd5b8101908080359060200190929190505050611c27565b604051808573ffffffffffffffffffffffffffffffffffffffff1673ffffffffffffffffffffffffffffffffffffffff1681526020018481526020018060200180602001838103835285818151815260200191508051906020019080838360005b838110156106f95780820151818401526020810190506106de565b50505050905090810190601f1680156107265780820380516001836020036101000a031916815260200191505b50838103825284818151815260200191508051906020019080838360005b8381101561075f578082015181840152602081019050610744565b50505050905090810190601f16801561078c5780820380516001836020036101000a031916815260200191505b50965050505050505060405180910390f35b6107ca600480360360208110156107b457600080fd5b8101908080359060200190929190505050611da7565b604051808573ffffffffffffffffffffffffffffffffffffffff1673ffffffffffffffffffffffffffffffffffffffff1681526020018481526020018060200180602001838103835285818151815260200191508051906020019080838360005b8381101561084657808201518184015260208101905061082b565b50505050905090810190601f1680156108735780820380516001836020036101000a031916815260200191505b50838103825284818151815260200191508051906020019080838360005b838110156108ac578082015181840152602081019050610891565b50505050905090810190601f1680156108d95780820380516001836020036101000a031916815260200191505b50965050505050505060405180910390f35b6108f3611f27565b6040518082815260200191505060405180910390f35b6109356004803603602081101561091f57600080fd5b8101908080359060200190929190505050611f2d565b604051808673ffffffffffffffffffffffffffffffffffffffff1673ffffffffffffffffffffffffffffffffffffffff168152602001858152602001806020018060200180602001848103845287818151815260200191508051906020019080838360005b838110156109b557808201518184015260208101905061099a565b50505050905090810190601f1680156109e25780820380516001836020036101000a031916815260200191505b50848103835286818151815260200191508051906020019080838360005b83811015610a1b578082015181840152602081019050610a00565b50505050905090810190601f168015610a485780820380516001836020036101000a031916815260200191505b50848103825285818151815260200191508051906020019080838360005b83811015610a81578082015181840152602081019050610a66565b50505050905090810190601f168015610aae5780820380516001836020036101000a031916815260200191505b509850505050505050505060405180910390f35b610b0460048036036020811015610ad857600080fd5b81019080803573ffffffffffffffffffffffffffffffffffffffff16906020019092919050505061214b565b6040518082815260200191505060405180910390f35b610b5c60048036036020811015610b3057600080fd5b81019080803573ffffffffffffffffffffffffffffffffffffffff169060200190929190505050612163565b6040518082815260200191505060405180910390f35b610b9e60048036036020811015610b8857600080fd5b810190808035906020019092919050505061217b565b005b610d0460048036036080811015610bb657600080fd5b8101908080359060200190640100000000811115610bd357600080fd5b820183602082011115610be557600080fd5b80359060200191846001830284011164010000000083111715610c0757600080fd5b91908080601f016020809104026020016040519081016040528093929190818152602001838380828437600081840152601f19601f82011690508083019250505050505050919291929080359060200190640100000000811115610c6a57600080fd5b820183602082011115610c7c57600080fd5b80359060200191846001830284011164010000000083111715610c9e57600080fd5b91908080601f016020809104026020016040519081016040528093929190818152602001838380828437600081840152601f19601f8201169050808301925050505050505091929192908035906020019092919080359060200190929190505050612389565b005b610d4860048036036020811015610d1c57600080fd5b81019080803573ffffffffffffffffffffffffffffffffffffffff16906020019092919050505061268f565b6040518082815260200191505060405180910390f35b610d666126a7565b6040518082815260200191505060405180910390f35b610d846126ad565b604051808273ffffffffffffffffffffffffffffffffffffffff1673ffffffffffffffffffffffffffffffffffffffff16815260200191505060405180910390f35b610f1660048036036040811015610ddc57600080fd5b8101908080359060200190640100000000811115610df957600080fd5b820183602082011115610e0b57600080fd5b80359060200191846001830284011164010000000083111715610e2d57600080fd5b91908080601f016020809104026020016040519081016040528093929190818152602001838380828437600081840152601f19601f82011690508083019250505050505050919291929080359060200190640100000000811115610e9057600080fd5b820183602082011115610ea257600080fd5b80359060200191846001830284011164010000000083111715610ec457600080fd5b91908080601f016020809104026020016040519081016040528093929190818152602001838380828437600081840152601f19601f8201169050808301925050505050505091929192905050506126d2565b005b610f4460048036036020811015610f2e57600080fd5b81019080803590602001909291905050506128f2565b005b610f4e612b00565b6040518082815260200191505060405180910390f35b610f9060048036036020811015610f7a57600080fd5b8101908080359060200190929190505050612b06565b604051808573ffffffffffffffffffffffffffffffffffffffff1673ffffffffffffffffffffffffffffffffffffffff1681526020018481526020018060200180602001838103835285818151815260200191508051906020019080838360005b8381101561100c578082015181840152602081019050610ff1565b50505050905090810190601f1680156110395780820380516001836020036101000a031916815260200191505b50838103825284818151815260200191508051906020019080838360005b83811015611072578082015181840152602081019050611057565b50505050905090810190601f16801561109f5780820380516001836020036101000a031916815260200191505b50965050505050505060405180910390f35b6110dd600480360360208110156110c757600080fd5b8101908080359060200190929190505050612c86565b604051808b815260200180602001806020018a815260200189815260200188815260200187815260200186815260200185815260200184600581111561111f57fe5b60ff16815260200183810383528c818151815260200191508051906020019080838360005b8381101561115f578082015181840152602081019050611144565b50505050905090810190601f16801561118c5780820380516001836020036101000a031916815260200191505b5083810382528b818151815260200191508051906020019080838360005b838110156111c55780820151818401526020810190506111aa565b50505050905090810190601f1680156111f25780820380516001836020036101000a031916815260200191505b509c5050505050505050505050505060405180910390f35b6112366004803603602081101561122057600080fd5b8101908080359060200190929190505050612e17565b005b6112646004803603602081101561124e57600080fd5b8101908080359060200190929190505050613025565b6040518080602001828103825283818151815260200191508051906020019080838360005b838110156112a4578082015181840152602081019050611289565b50505050905090810190601f1680156112d15780820380516001836020036101000a031916815260200191505b509250505060405180910390f35b6112e7613333565b6040518082815260200191505060405180910390f35b61133f6004803603602081101561131357600080fd5b81019080803573ffffffffffffffffffffffffffffffffffffffff169060200190929190505050613339565b6040518082815260200191505060405180910390f35b6000600e60003373ffffffffffffffffffffffffffffffffffffffff1673ffffffffffffffffffffffffffffffffffffffff168152602001908152602001600020541461140a576040517f08c379a00000000000000000000000000000000000000000000000000000000081526004018080602001828103825260208152602001807f416c7265616479207265676973746572656420617320612072657461696c657281525060200191505060405180910390fd5b60056000815480929190600101919050555060405180608001604052803373ffffffffffffffffffffffffffffffffffffffff168152602001600554815260200183815260200182815250600a6000600554815260200190815260200160002060008201518160000160006101000a81548173ffffffffffffffffffffffffffffffffffffffff021916908373ffffffffffffffffffffffffffffffffffffffff1602179055506020820151816001015560408201518160020190805190602001906114d7929190613351565b5060608201518160030190805190602001906114f4929190613351565b50905050600554600e60003373ffffffffffffffffffffffffffffffffffffffff1673ffffffffffffffffffffffffffffffffffffffff168152602001908152602001600020819055503373ffffffffffffffffffffffffffffffffffffffff167f0f2867ac4d73d7b711f943b96df5f8b3daec55d22609682683f3bb98de448dfd6005546040518082815260200191505060405180910390a25050565b6000600c60003373ffffffffffffffffffffffffffffffffffffffff1673ffffffffffffffffffffffffffffffffffffffff168152602001908152602001600020541461162a576040517f08c379a00000000000000000000000000000000000000000000000000000000081526004018080602001828103825260218152602001806134456021913960400191505060405180910390fd5b60036000815480929190600101919050555060405180608001604052803373ffffffffffffffffffffffffffffffffffffffff16815260200160035481526020018381526020018281525060086000600354815260200190815260200160002060008201518160000160006101000a81548173ffffffffffffffffffffffffffffffffffffffff021916908373ffffffffffffffffffffffffffffffffffffffff1602179055506020820151816001015560408201518160020190805190602001906116f7929190613351565b506060820151816003019080519060200190611714929190613351565b50905050600354600c60003373ffffffffffffffffffffffffffffffffffffffff1673ffffffffffffffffffffffffffffffffffffffff168152602001908152602001600020819055503373ffffffffffffffffffffffffffffffffffffffff167fc6b229ec2d19cc9dca77717f18c4fdde59d655df7ab93fac62683389a1b654866003546040518082815260200191505060405180910390a25050565b6000600b60003373ffffffffffffffffffffffffffffffffffffffff1673ffffffffffffffffffffffffffffffffffffffff1681526020019081526020016000205414611867576040517f08c379a000000000000000000000000000000000000000000000000000000000815260040180806020018281038252601e8152602001807f416c726561647920726567697374657265642061732061206661726d6572000081525060200191505060405180910390fd5b6002600081548092919060010191905055506040518060a001604052803373ffffffffffffffffffffffffffffffffffffffff16815260200160025481526020018481526020018381526020018281525060076000600254815260200190815260200160002060008201518160000160006101000a81548173ffffffffffffffffffffffffffffffffffffffff021916908373ffffffffffffffffffffffffffffffffffffffff16021790555060208201518160010155604082015181600201908051906020019061193a929190613351565b506060820151816003019080519060200190611957929190613351565b506080820151816004019080519060200190611974929190613351565b50905050600254600b60003373ffffffffffffffffffffffffffffffffffffffff1673ffffffffffffffffffffffffffffffffffffffff168152602001908152602001600020819055503373ffffffffffffffffffffffffffffffffffffffff167fb3219315c0ced99edd962f98390d5e04de34a96f714bfcd29dbd120e6e93dffa6002546040518082815260200191505060405180910390a2505050565b60055481565b6000600d60003373ffffffffffffffffffffffffffffffffffffffff1673ffffffffffffffffffffffffffffffffffffffff16815260200190815260200160002054905060008111611ad3576040517f08c379a000000000000000000000000000000000000000000000000000000000815260040180806020018281038252601f8152602001807f4e6f7420726567697374657265642061732061206469737472696275746f720081525060200191505060405180910390fd5b60026005811115611ae057fe5b6006600084815260200190815260200160002060090160009054906101000a900460ff166005811115611b0f57fe5b14611b82576040517f08c379a000000000000000000000000000000000000000000000000000000000815260040180806020018281038252601c8152602001807f43726f70206e6f7420696e2070726f63657373696e672073746167650000000081525060200191505060405180910390fd5b80600660008481526020019081526020016000206005018190555060036006600084815260200190815260200160002060090160006101000a81548160ff02191690836005811115611bd057fe5b02179055507f292f7a4e357ae672b8497d91b2d3968c50bc3bed637ae2f7feeb5a21eefc4ea182600360405180838152602001826005811115611c0f57fe5b60ff1681526020019250505060405180910390a15050565b60086020528060005260406000206000915090508060000160009054906101000a900473ffffffffffffffffffffffffffffffffffffffff1690806001015490806002018054600181600116156101000203166002900480601f016020809104026020016040519081016040528092919081815260200182805460018160011615610100020316600290048015611cff5780601f10611cd457610100808354040283529160200191611cff565b820191906000526020600020905b815481529060010190602001808311611ce257829003601f168201915b505050505090806003018054600181600116156101000203166002900480601f016020809104026020016040519081016040528092919081815260200182805460018160011615610100020316600290048015611d9d5780601f10611d7257610100808354040283529160200191611d9d565b820191906000526020600020905b815481529060010190602001808311611d8057829003601f168201915b5050505050905084565b60096020528060005260406000206000915090508060000160009054906101000a900473ffffffffffffffffffffffffffffffffffffffff1690806001015490806002018054600181600116156101000203166002900480601f016020809104026020016040519081016040528092919081815260200182805460018160011615610100020316600290048015611e7f5780601f10611e5457610100808354040283529160200191611e7f565b820191906000526020600020905b815481529060010190602001808311611e6257829003601f168201915b505050505090806003018054600181600116156101000203166002900480601f016020809104026020016040519081016040528092919081815260200182805460018160011615610100020316600290048015611f1d5780601f10611ef257610100808354040283529160200191611f1d565b820191906000526020600020905b815481529060010190602001808311611f0057829003601f168201915b5050505050905084565b60015481565b60076020528060005260406000206000915090508060000160009054906101000a900473ffffffffffffffffffffffffffffffffffffffff1690806001015490806002018054600181600116156101000203166002900480601f0160208091040260200160405190810160405280929190818152602001828054600181600116156101000203166002900480156120055780601f10611fda57610100808354040283529160200191612005565b820191906000526020600020905b815481529060010190602001808311611fe857829003601f168201915b505050505090806003018054600181600116156101000203166002900480601f0160208091040260200160405190810160405280929190818152602001828054600181600116156101000203166002900480156120a35780601f10612078576101008083540402835291602001916120a3565b820191906000526020600020905b81548152906001019060200180831161208657829003601f168201915b505050505090806004018054600181600116156101000203166002900480601f0160208091040260200160405190810160405280929190818152602001828054600181600116156101000203166002900480156121415780601f1061211657610100808354040283529160200191612141565b820191906000526020600020905b81548152906001019060200180831161212457829003601f168201915b5050505050905085565b600d6020528060005260406000206000915090505481565b600c6020528060005260406000206000915090505481565b6000600e60003373ffffffffffffffffffffffffffffffffffffffff1673ffffffffffffffffffffffffffffffffffffffff16815260200190815260200160002054905060008111612235576040517f08c379a000000000000000000000000000000000000000000000000000000000815260040180806020018281038252601c8152602001807f4e6f74207265676973746572656420617320612072657461696c65720000000081525060200191505060405180910390fd5b6003600581111561224257fe5b6006600084815260200190815260200160002060090160009054906101000a900460ff16600581111561227157fe5b146122e4576040517f08c379a000000000000000000000000000000000000000000000000000000000815260040180806020018281038252601e8152602001807f43726f70206e6f7420696e20646973747269627574696f6e207374616765000081525060200191505060405180910390fd5b80600660008481526020019081526020016000206006018190555060046006600084815260200190815260200160002060090160006101000a81548160ff0219169083600581111561233257fe5b02179055507f292f7a4e357ae672b8497d91b2d3968c50bc3bed637ae2f7feeb5a21eefc4ea18260046040518083815260200182600581111561237157fe5b60ff1681526020019250505060405180910390a15050565b6000809054906101000a900473ffffffffffffffffffffffffffffffffffffffff1673ffffffffffffffffffffffffffffffffffffffff163373ffffffffffffffffffffffffffffffffffffffff161461242e576040517f08c379a000000000000000000000000000000000000000000000000000000000815260040180806020018281038252602b81526020018061341a602b913960400191505060405180910390fd5b6000600254116124a6576040517f08c379a00000000000000000000000000000000000000000000000000000000081526004018080602001828103825260198152602001807f4e6f206661726d6572732072656769737465726564207965740000000000000081525060200191505060405180910390fd5b6001600081548092919060010191905055506040518061014001604052806001548152602001858152602001848152602001600081526020016000815260200160008152602001600081526020018381526020018281526020016000600581111561250d57fe5b81525060066000600154815260200190815260200160002060008201518160000155602082015181600101908051906020019061254b929190613351565b506040820151816002019080519060200190612568929190613351565b50606082015181600301556080820151816004015560a0820151816005015560c0820151816006015560e0820151816007015561010082015181600801556101208201518160090160006101000a81548160ff021916908360058111156125cb57fe5b02179055509050507f74d1be20b106a72b6f92f1ac3f7b2c080617319334264a6404624657cfe15e976001548584846040518085815260200180602001848152602001838152602001828103825285818151815260200191508051906020019080838360005b8381101561264c578082015181840152602081019050612631565b50505050905090810190601f1680156126795780820380516001836020036101000a031916815260200191505b509550505050505060405180910390a150505050565b600b6020528060005260406000206000915090505481565b60035481565b6000809054906101000a900473ffffffffffffffffffffffffffffffffffffffff1681565b6000600d60003373ffffffffffffffffffffffffffffffffffffffff1673ffffffffffffffffffffffffffffffffffffffff168152602001908152602001600020541461276a576040517f08c379a00000000000000000000000000000000000000000000000000000000081526004018080602001828103825260238152602001806133f76023913960400191505060405180910390fd5b60046000815480929190600101919050555060405180608001604052803373ffffffffffffffffffffffffffffffffffffffff16815260200160045481526020018381526020018281525060096000600454815260200190815260200160002060008201518160000160006101000a81548173ffffffffffffffffffffffffffffffffffffffff021916908373ffffffffffffffffffffffffffffffffffffffff160217905550602082015181600101556040820151816002019080519060200190612837929190613351565b506060820151816003019080519060200190612854929190613351565b50905050600454600d60003373ffffffffffffffffffffffffffffffffffffffff1673ffffffffffffffffffffffffffffffffffffffff168152602001908152602001600020819055503373ffffffffffffffffffffffffffffffffffffffff167f62000118bf53a056c9b1ef800125692e0d1ad76944c8a4055ad1cc628495a6956004546040518082815260200191505060405180910390a25050565b6000600b60003373ffffffffffffffffffffffffffffffffffffffff1673ffffffffffffffffffffffffffffffffffffffff168152602001908152602001600020549050600081116129ac576040517f08c379a000000000000000000000000000000000000000000000000000000000815260040180806020018281038252601a8152602001807f4e6f7420726567697374657265642061732061206661726d657200000000000081525060200191505060405180910390fd5b600060058111156129b957fe5b6006600084815260200190815260200160002060090160009054906101000a900460ff1660058111156129e857fe5b14612a5b576040517f08c379a00000000000000000000000000000000000000000000000000000000081526004018080602001828103825260198152602001807f43726f70206e6f7420696e20696e697469616c2073746167650000000000000081525060200191505060405180910390fd5b80600660008481526020019081526020016000206003018190555060016006600084815260200190815260200160002060090160006101000a81548160ff02191690836005811115612aa957fe5b02179055507f292f7a4e357ae672b8497d91b2d3968c50bc3bed637ae2f7feeb5a21eefc4ea182600160405180838152602001826005811115612ae857fe5b60ff1681526020019250505060405180910390a15050565b60045481565b600a6020528060005260406000206000915090508060000160009054906101000a900473ffffffffffffffffffffffffffffffffffffffff1690806001015490806002018054600181600116156101000203166002900480601f016020809104026020016040519081016040528092919081815260200182805460018160011615610100020316600290048015612bde5780601f10612bb357610100808354040283529160200191612bde565b820191906000526020600020905b815481529060010190602001808311612bc157829003601f168201915b505050505090806003018054600181600116156101000203166002900480601f016020809104026020016040519081016040528092919081815260200182805460018160011615610100020316600290048015612c7c5780601f10612c5157610100808354040283529160200191612c7c565b820191906000526020600020905b815481529060010190602001808311612c5f57829003601f168201915b5050505050905084565b6006602052806000526040600020600091509050806000015490806001018054600181600116156101000203166002900480601f016020809104026020016040519081016040528092919081815260200182805460018160011615610100020316600290048015612d385780601f10612d0d57610100808354040283529160200191612d38565b820191906000526020600020905b815481529060010190602001808311612d1b57829003601f168201915b505050505090806002018054600181600116156101000203166002900480601f016020809104026020016040519081016040528092919081815260200182805460018160011615610100020316600290048015612dd65780601f10612dab57610100808354040283529160200191612dd6565b820191906000526020600020905b815481529060010190602001808311612db957829003601f168201915b5050505050908060030154908060040154908060050154908060060154908060070154908060080154908060090160009054906101000a900460ff1690508a565b6000600c60003373ffffffffffffffffffffffffffffffffffffffff1673ffffffffffffffffffffffffffffffffffffffff16815260200190815260200160002054905060008111612ed1576040517f08c379a000000000000000000000000000000000000000000000000000000000815260040180806020018281038252601d8152602001807f4e6f74207265676973746572656420617320612070726f636573736f7200000081525060200191505060405180910390fd5b60016005811115612ede57fe5b6006600084815260200190815260200160002060090160009054906101000a900460ff166005811115612f0d57fe5b14612f80576040517f08c379a00000000000000000000000000000000000000000000000000000000081526004018080602001828103825260198152602001807f43726f70206e6f7420696e206661726d696e672073746167650000000000000081525060200191505060405180910390fd5b80600660008481526020019081526020016000206004018190555060026006600084815260200190815260200160002060090160006101000a81548160ff02191690836005811115612fce57fe5b02179055507f292f7a4e357ae672b8497d91b2d3968c50bc3bed637ae2f7feeb5a21eefc4ea18260026040518083815260200182600581111561300d57fe5b60ff1681526020019250505060405180910390a15050565b606060006001541161309f576040517f08c379a000000000000000000000000000000000000000000000000000000000815260040180806020018281038252600e8152602001807f4e6f2063726f707320657869737400000000000000000000000000000000000081525060200191505060405180910390fd5b60006006600084815260200190815260200160002060090160009054906101000a900460ff169050600060058111156130d457fe5b8160058111156130e057fe5b1415613124576040518060400160405280601081526020017f43726f7020496e697469616c697a65640000000000000000000000000000000081525091505061332e565b6001600581111561313157fe5b81600581111561313d57fe5b1415613181576040518060400160405280600d81526020017f4661726d696e672053746167650000000000000000000000000000000000000081525091505061332e565b6002600581111561318e57fe5b81600581111561319a57fe5b14156131de576040518060400160405280601081526020017f50726f63657373696e672053746167650000000000000000000000000000000081525091505061332e565b600360058111156131eb57fe5b8160058111156131f757fe5b141561323b576040518060400160405280601281526020017f446973747269627574696f6e205374616765000000000000000000000000000081525091505061332e565b6004600581111561324857fe5b81600581111561325457fe5b1415613298576040518060400160405280600c81526020017f52657461696c205374616765000000000000000000000000000000000000000081525091505061332e565b6005808111156132a457fe5b8160058111156132b057fe5b14156132f4576040518060400160405280600981526020017f43726f7020536f6c64000000000000000000000000000000000000000000000081525091505061332e565b6040518060400160405280600d81526020017f556e6b6e6f776e205374616765000000000000000000000000000000000000008152509150505b919050565b60025481565b600e6020528060005260406000206000915090505481565b828054600181600116156101000203166002900490600052602060002090601f016020900481019282601f1061339257805160ff19168380011785556133c0565b828001600101855582156133c0579182015b828111156133bf5782518255916020019190600101906133a4565b5b5090506133cd91906133d1565b5090565b6133f391905b808211156133ef5760008160009055506001016133d7565b5090565b9056fe416c726561647920726567697374657265642061732061206469737472696275746f724f6e6c7920636f6e7472616374206f776e65722063616e20706572666f726d207468697320616374696f6e416c7265616479207265676973746572656420617320612070726f636573736f72a265627a7a723158202c5d64efee25cbf8363eadc369fc7160991a25620004bd98561fc218fcfdb74d64736f6c63430005100032",
  "source": "// SPDX-License-Identifier: MIT\r\npragma solidity >=0.4.22 <0.9.0;\r\n\r\ncontract FarmerSupplyChain {\r\n    // Contract owner (the deployer of the contract)\r\n    address public Owner;\r\n\r\n    // Constructor to set the contract owner\r\n    constructor() public {\r\n        Owner = msg.sender;\r\n    }\r\n\r\n    // Modifier to restrict functions to only the owner\r\n    modifier onlyByOwner() {\r\n        require(msg.sender == Owner, \"Only contract owner can perform this action\");\r\n        _;\r\n    }\r\n\r\n    // Stages of agricultural product\r\n    enum STAGE {\r\n        Init,\r\n        Farming,\r\n        Processing,\r\n        Distribution,\r\n        Retail,\r\n        Sold\r\n    }\r\n\r\n    // Counters for tracking entities\r\n    uint256 public cropCtr = 0;\r\n    uint256 public farmerCtr = 0;\r\n    uint256 public processorCtr = 0;\r\n    uint256 public distributorCtr = 0;\r\n    uint256 public retailerCtr = 0;\r\n\r\n    // Struct to store crop information\r\n    struct Crop {\r\n        uint256 id;\r\n        string name;\r\n        string description;\r\n        uint256 farmerId;\r\n        uint256 processorId;\r\n        uint256 distributorId;\r\n        uint256 retailerId;\r\n        uint256 quantity;\r\n        uint256 price;\r\n        STAGE stage;\r\n    }\r\n\r\n    // Struct to store farmer information\r\n    struct Farmer {\r\n        address addr;\r\n        uint256 id;\r\n        string name;\r\n        string location;\r\n        string specialization;\r\n    }\r\n\r\n    // Struct to store processor information\r\n    struct Processor {\r\n        address addr;\r\n        uint256 id;\r\n        string name;\r\n        string location;\r\n    }\r\n\r\n    // Struct to store distributor information\r\n    struct Distributor {\r\n        address addr;\r\n        uint256 id;\r\n        string name;\r\n        string location;\r\n    }\r\n\r\n    // Struct to store retailer information\r\n    struct Retailer {\r\n        address addr;\r\n        uint256 id;\r\n        string name;\r\n        string location;\r\n    }\r\n\r\n    // Mappings to store and manage entities\r\n    mapping(uint256 => Crop) public CropStock;\r\n    mapping(uint256 => Farmer) public Farmers;\r\n    mapping(uint256 => Processor) public Processors;\r\n    mapping(uint256 => Distributor) public Distributors;\r\n    mapping(uint256 => Retailer) public Retailers;\r\n\r\n    // Mappings to check registration\r\n    mapping(address => uint256) public RegisteredFarmers;\r\n    mapping(address => uint256) public RegisteredProcessors;\r\n    mapping(address => uint256) public RegisteredDistributors;\r\n    mapping(address => uint256) public RegisteredRetailers;\r\n\r\n    // Events for tracking important actions\r\n    event FarmerRegistered(address indexed farmer, uint256 id);\r\n    event ProcessorRegistered(address indexed processor, uint256 id);\r\n    event DistributorRegistered(address indexed distributor, uint256 id);\r\n    event RetailerRegistered(address indexed retailer, uint256 id);\r\n    event CropAdded(uint256 cropId, string name, uint256 quantity, uint256 price);\r\n    event CropStageUpdated(uint256 cropId, STAGE newStage);\r\n\r\n    // Function to register a farmer\r\n    function registerFarmer(\r\n        string memory _name,\r\n        string memory _location,\r\n        string memory _specialization\r\n    ) public {\r\n        require(RegisteredFarmers[msg.sender] == 0, \"Already registered as a farmer\");\r\n\r\n        farmerCtr++;\r\n        Farmers[farmerCtr] = Farmer(\r\n            msg.sender,\r\n            farmerCtr,\r\n            _name,\r\n            _location,\r\n            _specialization\r\n        );\r\n        RegisteredFarmers[msg.sender] = farmerCtr;\r\n\r\n        emit FarmerRegistered(msg.sender, farmerCtr);\r\n    }\r\n\r\n    // Function to register a processor\r\n    function registerProcessor(\r\n        string memory _name,\r\n        string memory _location\r\n    ) public {\r\n        require(RegisteredProcessors[msg.sender] == 0, \"Already registered as a processor\");\r\n\r\n        processorCtr++;\r\n        Processors[processorCtr] = Processor(\r\n            msg.sender,\r\n            processorCtr,\r\n            _name,\r\n            _location\r\n        );\r\n        RegisteredProcessors[msg.sender] = processorCtr;\r\n\r\n        emit ProcessorRegistered(msg.sender, processorCtr);\r\n    }\r\n\r\n    // Function to register a distributor\r\n    function registerDistributor(\r\n        string memory _name,\r\n        string memory _location\r\n    ) public {\r\n        require(RegisteredDistributors[msg.sender] == 0, \"Already registered as a distributor\");\r\n\r\n        distributorCtr++;\r\n        Distributors[distributorCtr] = Distributor(\r\n            msg.sender,\r\n            distributorCtr,\r\n            _name,\r\n            _location\r\n        );\r\n        RegisteredDistributors[msg.sender] = distributorCtr;\r\n\r\n        emit DistributorRegistered(msg.sender, distributorCtr);\r\n    }\r\n\r\n    // Function to register a retailer\r\n    function registerRetailer(\r\n        string memory _name,\r\n        string memory _location\r\n    ) public {\r\n        require(RegisteredRetailers[msg.sender] == 0, \"Already registered as a retailer\");\r\n\r\n        retailerCtr++;\r\n        Retailers[retailerCtr] = Retailer(\r\n            msg.sender,\r\n            retailerCtr,\r\n            _name,\r\n            _location\r\n        );\r\n        RegisteredRetailers[msg.sender] = retailerCtr;\r\n\r\n        emit RetailerRegistered(msg.sender, retailerCtr);\r\n    }\r\n\r\n    // Function to add a new crop (only by owner)\r\n    function addCrop(\r\n        string memory _name,\r\n        string memory _description,\r\n        uint256 _quantity,\r\n        uint256 _price\r\n    ) public onlyByOwner {\r\n        require(farmerCtr > 0, \"No farmers registered yet\");\r\n\r\n        cropCtr++;\r\n        CropStock[cropCtr] = Crop(\r\n            cropCtr,\r\n            _name,\r\n            _description,\r\n            0,  // No farmer assigned yet\r\n            0,  // No processor assigned yet\r\n            0,  // No distributor assigned yet\r\n            0,  // No retailer assigned yet\r\n            _quantity,\r\n            _price,\r\n            STAGE.Init\r\n        );\r\n\r\n        emit CropAdded(cropCtr, _name, _quantity, _price);\r\n    }\r\n\r\n    // Function to update crop stage (farming)\r\n    function farmingStage(uint256 _cropId) public {\r\n        uint256 _farmerId = RegisteredFarmers[msg.sender];\r\n        require(_farmerId > 0, \"Not registered as a farmer\");\r\n        require(CropStock[_cropId].stage == STAGE.Init, \"Crop not in initial stage\");\r\n\r\n        CropStock[_cropId].farmerId = _farmerId;\r\n        CropStock[_cropId].stage = STAGE.Farming;\r\n\r\n        emit CropStageUpdated(_cropId, STAGE.Farming);\r\n    }\r\n\r\n    // Function to update crop stage (processing)\r\n    function processingStage(uint256 _cropId) public {\r\n        uint256 _processorId = RegisteredProcessors[msg.sender];\r\n        require(_processorId > 0, \"Not registered as a processor\");\r\n        require(CropStock[_cropId].stage == STAGE.Farming, \"Crop not in farming stage\");\r\n\r\n        CropStock[_cropId].processorId = _processorId;\r\n        CropStock[_cropId].stage = STAGE.Processing;\r\n\r\n        emit CropStageUpdated(_cropId, STAGE.Processing);\r\n    }\r\n\r\n    // Function to update crop stage (distribution)\r\n    function distributionStage(uint256 _cropId) public {\r\n        uint256 _distributorId = RegisteredDistributors[msg.sender];\r\n        require(_distributorId > 0, \"Not registered as a distributor\");\r\n        require(CropStock[_cropId].stage == STAGE.Processing, \"Crop not in processing stage\");\r\n\r\n        CropStock[_cropId].distributorId = _distributorId;\r\n        CropStock[_cropId].stage = STAGE.Distribution;\r\n\r\n        emit CropStageUpdated(_cropId, STAGE.Distribution);\r\n    }\r\n\r\n    // Function to update crop stage (retail)\r\n    function retailStage(uint256 _cropId) public {\r\n        uint256 _retailerId = RegisteredRetailers[msg.sender];\r\n        require(_retailerId > 0, \"Not registered as a retailer\");\r\n        require(CropStock[_cropId].stage == STAGE.Distribution, \"Crop not in distribution stage\");\r\n\r\n        CropStock[_cropId].retailerId = _retailerId;\r\n        CropStock[_cropId].stage = STAGE.Retail;\r\n\r\n        emit CropStageUpdated(_cropId, STAGE.Retail);\r\n    }\r\n\r\n    // Function to show current stage of a crop\r\n    function showStage(uint256 _cropId) public view returns (string memory) {\r\n        require(cropCtr > 0, \"No crops exist\");\r\n\r\n        STAGE currentStage = CropStock[_cropId].stage;\r\n\r\n        if (currentStage == STAGE.Init) return \"Crop Initialized\";\r\n        if (currentStage == STAGE.Farming) return \"Farming Stage\";\r\n        if (currentStage == STAGE.Processing) return \"Processing Stage\";\r\n        if (currentStage == STAGE.Distribution) return \"Distribution Stage\";\r\n        if (currentStage == STAGE.Retail) return \"Retail Stage\";\r\n        if (currentStage == STAGE.Sold) return \"Crop Sold\";\r\n\r\n        return \"Unknown Stage\";\r\n    }\r\n}\r\n",
  "sourcePath": "D:\\agri-tech-hackathon\\contracts\\FarmerSupplyChain.sol",
  "compiler": {
    "name": "solc",
    "version": "0.5.16+commit.9c3226ce.Emscripten.clang"
  },
  "schemaVersion": "3.4.16",
  "updatedAt": "2025-03-27T14:44:08.295Z",
  "networkType": "ethereum",
  "devdoc": {
    "methods": {}
  },
  "userdoc": {
    "methods": {}
  }
}